{
  "address": "0xde0C81E95Ad124C9cE8A1f363446d629dd1e2ecc",
  "abi": [
    {
      "inputs": [],
      "stateMutability": "nonpayable",
      "type": "constructor"
    },
    {
      "inputs": [],
      "name": "NOT_SUPPORTED_TOKEN",
      "type": "error"
    },
    {
      "inputs": [],
      "name": "OWNER_ADDRESS_ZERO",
      "type": "error"
    },
    {
      "inputs": [],
      "name": "TOKEN_DOESNT_EXIST",
      "type": "error"
    },
    {
      "inputs": [],
      "name": "TOKEN_EXIST",
      "type": "error"
    },
    {
      "inputs": [],
      "name": "WRONGE_SIG",
      "type": "error"
    },
    {
      "anonymous": false,
      "inputs": [
        {
          "indexed": false,
          "internalType": "uint8",
          "name": "version",
          "type": "uint8"
        }
      ],
      "name": "Initialized",
      "type": "event"
    },
    {
      "anonymous": false,
      "inputs": [
        {
          "indexed": false,
          "internalType": "address",
          "name": "account",
          "type": "address"
        }
      ],
      "name": "Paused",
      "type": "event"
    },
    {
      "anonymous": false,
      "inputs": [
        {
          "indexed": true,
          "internalType": "bytes32",
          "name": "role",
          "type": "bytes32"
        },
        {
          "indexed": true,
          "internalType": "bytes32",
          "name": "previousAdminRole",
          "type": "bytes32"
        },
        {
          "indexed": true,
          "internalType": "bytes32",
          "name": "newAdminRole",
          "type": "bytes32"
        }
      ],
      "name": "RoleAdminChanged",
      "type": "event"
    },
    {
      "anonymous": false,
      "inputs": [
        {
          "indexed": true,
          "internalType": "bytes32",
          "name": "role",
          "type": "bytes32"
        },
        {
          "indexed": true,
          "internalType": "address",
          "name": "account",
          "type": "address"
        },
        {
          "indexed": true,
          "internalType": "address",
          "name": "sender",
          "type": "address"
        }
      ],
      "name": "RoleGranted",
      "type": "event"
    },
    {
      "anonymous": false,
      "inputs": [
        {
          "indexed": true,
          "internalType": "bytes32",
          "name": "role",
          "type": "bytes32"
        },
        {
          "indexed": true,
          "internalType": "address",
          "name": "account",
          "type": "address"
        },
        {
          "indexed": true,
          "internalType": "address",
          "name": "sender",
          "type": "address"
        }
      ],
      "name": "RoleRevoked",
      "type": "event"
    },
    {
      "anonymous": false,
      "inputs": [
        {
          "indexed": false,
          "internalType": "address",
          "name": "_token",
          "type": "address"
        },
        {
          "indexed": false,
          "internalType": "address",
          "name": "_WToken",
          "type": "address"
        }
      ],
      "name": "TokenAddedToList",
      "type": "event"
    },
    {
      "anonymous": false,
      "inputs": [
        {
          "indexed": false,
          "internalType": "address",
          "name": "_token",
          "type": "address"
        },
        {
          "indexed": false,
          "internalType": "address",
          "name": "_WTokenOld",
          "type": "address"
        },
        {
          "indexed": false,
          "internalType": "address",
          "name": "_WTokenNew",
          "type": "address"
        }
      ],
      "name": "TokenChangedInList",
      "type": "event"
    },
    {
      "anonymous": false,
      "inputs": [
        {
          "indexed": true,
          "internalType": "address",
          "name": "to",
          "type": "address"
        },
        {
          "indexed": false,
          "internalType": "uint256",
          "name": "chainId",
          "type": "uint256"
        },
        {
          "indexed": false,
          "internalType": "contract IERC20",
          "name": "token",
          "type": "address"
        },
        {
          "indexed": false,
          "internalType": "uint256",
          "name": "amount",
          "type": "uint256"
        }
      ],
      "name": "TokenDeposit",
      "type": "event"
    },
    {
      "anonymous": false,
      "inputs": [
        {
          "indexed": true,
          "internalType": "address",
          "name": "to",
          "type": "address"
        },
        {
          "indexed": false,
          "internalType": "uint256",
          "name": "chainId",
          "type": "uint256"
        },
        {
          "indexed": false,
          "internalType": "contract IERC20",
          "name": "token",
          "type": "address"
        },
        {
          "indexed": false,
          "internalType": "uint256",
          "name": "amount",
          "type": "uint256"
        }
      ],
      "name": "TokenRedeem",
      "type": "event"
    },
    {
      "anonymous": false,
      "inputs": [
        {
          "indexed": false,
          "internalType": "address",
          "name": "_token",
          "type": "address"
        }
      ],
      "name": "TokenRemovedFromList",
      "type": "event"
    },
    {
      "anonymous": false,
      "inputs": [
        {
          "indexed": false,
          "internalType": "address",
          "name": "account",
          "type": "address"
        }
      ],
      "name": "Unpaused",
      "type": "event"
    },
    {
      "anonymous": false,
      "inputs": [],
      "name": "guardianClosed",
      "type": "event"
    },
    {
      "anonymous": false,
      "inputs": [],
      "name": "guardianTerminated",
      "type": "event"
    },
    {
      "inputs": [],
      "name": "DEFAULT_ADMIN_ROLE",
      "outputs": [
        {
          "internalType": "bytes32",
          "name": "",
          "type": "bytes32"
        }
      ],
      "stateMutability": "view",
      "type": "function"
    },
    {
      "inputs": [],
      "name": "GOVERNANCE_ROLE",
      "outputs": [
        {
          "internalType": "bytes32",
          "name": "",
          "type": "bytes32"
        }
      ],
      "stateMutability": "view",
      "type": "function"
    },
    {
      "inputs": [],
      "name": "GUARDIAN_ROLE",
      "outputs": [
        {
          "internalType": "bytes32",
          "name": "",
          "type": "bytes32"
        }
      ],
      "stateMutability": "view",
      "type": "function"
    },
    {
      "inputs": [],
      "name": "WFIL_ADDRESS",
      "outputs": [
        {
          "internalType": "address payable",
          "name": "",
          "type": "address"
        }
      ],
      "stateMutability": "view",
      "type": "function"
    },
    {
      "inputs": [],
      "name": "acceptebleThreshold",
      "outputs": [
        {
          "internalType": "uint256",
          "name": "",
          "type": "uint256"
        }
      ],
      "stateMutability": "view",
      "type": "function"
    },
    {
      "inputs": [
        {
          "internalType": "address",
          "name": "_token",
          "type": "address"
        },
        {
          "internalType": "address",
          "name": "_fToken",
          "type": "address"
        }
      ],
      "name": "addWToken",
      "outputs": [],
      "stateMutability": "nonpayable",
      "type": "function"
    },
    {
      "inputs": [],
      "name": "bridgeVersion",
      "outputs": [
        {
          "internalType": "uint256",
          "name": "",
          "type": "uint256"
        }
      ],
      "stateMutability": "view",
      "type": "function"
    },
    {
      "inputs": [
        {
          "internalType": "address",
          "name": "_token",
          "type": "address"
        },
        {
          "internalType": "address",
          "name": "_fToken",
          "type": "address"
        }
      ],
      "name": "changeWToken",
      "outputs": [],
      "stateMutability": "nonpayable",
      "type": "function"
    },
    {
      "inputs": [],
      "name": "closeguardian",
      "outputs": [],
      "stateMutability": "nonpayable",
      "type": "function"
    },
    {
      "inputs": [
        {
          "internalType": "address",
          "name": "to",
          "type": "address"
        },
        {
          "internalType": "uint256",
          "name": "chainId",
          "type": "uint256"
        },
        {
          "internalType": "contract IERC20",
          "name": "token",
          "type": "address"
        },
        {
          "internalType": "uint256",
          "name": "amount",
          "type": "uint256"
        }
      ],
      "name": "depositToken",
      "outputs": [],
      "stateMutability": "nonpayable",
      "type": "function"
    },
    {
      "inputs": [
        {
          "internalType": "address",
          "name": "tokenAddress",
          "type": "address"
        }
      ],
      "name": "getFeeBalance",
      "outputs": [
        {
          "internalType": "uint256",
          "name": "",
          "type": "uint256"
        }
      ],
      "stateMutability": "view",
      "type": "function"
    },
    {
      "inputs": [
        {
          "internalType": "bytes32",
          "name": "role",
          "type": "bytes32"
        }
      ],
      "name": "getRoleAdmin",
      "outputs": [
        {
          "internalType": "bytes32",
          "name": "",
          "type": "bytes32"
        }
      ],
      "stateMutability": "view",
      "type": "function"
    },
    {
      "inputs": [
        {
          "internalType": "bytes32",
          "name": "role",
          "type": "bytes32"
        },
        {
          "internalType": "address",
          "name": "account",
          "type": "address"
        }
      ],
      "name": "grantRole",
      "outputs": [],
      "stateMutability": "nonpayable",
      "type": "function"
    },
    {
      "inputs": [
        {
          "internalType": "bytes32",
          "name": "role",
          "type": "bytes32"
        },
        {
          "internalType": "address",
          "name": "account",
          "type": "address"
        }
      ],
      "name": "hasRole",
      "outputs": [
        {
          "internalType": "bool",
          "name": "",
          "type": "bool"
        }
      ],
      "stateMutability": "view",
      "type": "function"
    },
    {
      "inputs": [
        {
          "internalType": "address",
          "name": "_owner",
          "type": "address"
        },
        {
          "internalType": "address[]",
          "name": "_members",
          "type": "address[]"
        },
        {
          "internalType": "uint256",
          "name": "_honestThreshold",
          "type": "uint256"
        }
      ],
      "name": "initialize",
      "outputs": [],
      "stateMutability": "nonpayable",
      "type": "function"
    },
    {
      "inputs": [],
      "name": "isActive",
      "outputs": [
        {
          "internalType": "bool",
          "name": "",
          "type": "bool"
        }
      ],
      "stateMutability": "view",
      "type": "function"
    },
    {
      "inputs": [],
      "name": "isClosed",
      "outputs": [
        {
          "internalType": "bool",
          "name": "",
          "type": "bool"
        }
      ],
      "stateMutability": "view",
      "type": "function"
    },
    {
      "inputs": [],
      "name": "isTerminated",
      "outputs": [
        {
          "internalType": "bool",
          "name": "",
          "type": "bool"
        }
      ],
      "stateMutability": "view",
      "type": "function"
    },
    {
      "inputs": [],
      "name": "pause",
      "outputs": [],
      "stateMutability": "nonpayable",
      "type": "function"
    },
    {
      "inputs": [],
      "name": "paused",
      "outputs": [
        {
          "internalType": "bool",
          "name": "",
          "type": "bool"
        }
      ],
      "stateMutability": "view",
      "type": "function"
    },
    {
      "inputs": [
        {
          "internalType": "address",
          "name": "to",
          "type": "address"
        },
        {
          "internalType": "uint256",
          "name": "chainId",
          "type": "uint256"
        },
        {
          "internalType": "contract IERC20",
          "name": "token",
          "type": "address"
        },
        {
          "internalType": "uint256",
          "name": "amount",
          "type": "uint256"
        },
        {
          "internalType": "bytes32",
          "name": "r",
          "type": "bytes32"
        },
        {
          "internalType": "bytes32",
          "name": "vs",
          "type": "bytes32"
        }
      ],
      "name": "redeemToken",
      "outputs": [],
      "stateMutability": "nonpayable",
      "type": "function"
    },
    {
      "inputs": [
        {
          "internalType": "address",
          "name": "to",
          "type": "address"
        },
        {
          "internalType": "uint256",
          "name": "chainId",
          "type": "uint256"
        },
        {
          "internalType": "contract IERC20",
          "name": "token",
          "type": "address"
        },
        {
          "internalType": "uint256",
          "name": "amount",
          "type": "uint256"
        }
      ],
      "name": "redeemTokenHashGenerator",
      "outputs": [
        {
          "internalType": "bytes32",
          "name": "hash",
          "type": "bytes32"
        }
      ],
      "stateMutability": "view",
      "type": "function"
    },
    {
      "inputs": [
        {
          "internalType": "address",
          "name": "_token",
          "type": "address"
        }
      ],
      "name": "removeWToken",
      "outputs": [],
      "stateMutability": "nonpayable",
      "type": "function"
    },
    {
      "inputs": [
        {
          "internalType": "bytes32",
          "name": "role",
          "type": "bytes32"
        },
        {
          "internalType": "address",
          "name": "account",
          "type": "address"
        }
      ],
      "name": "renounceRole",
      "outputs": [],
      "stateMutability": "nonpayable",
      "type": "function"
    },
    {
      "inputs": [
        {
          "internalType": "bytes32",
          "name": "role",
          "type": "bytes32"
        },
        {
          "internalType": "address",
          "name": "account",
          "type": "address"
        }
      ],
      "name": "revokeRole",
      "outputs": [],
      "stateMutability": "nonpayable",
      "type": "function"
    },
    {
      "inputs": [
        {
          "internalType": "address payable",
          "name": "_wethAddress",
          "type": "address"
        }
      ],
      "name": "setWethAddress",
      "outputs": [],
      "stateMutability": "nonpayable",
      "type": "function"
    },
    {
      "inputs": [],
      "name": "startBlockNumber",
      "outputs": [
        {
          "internalType": "uint256",
          "name": "",
          "type": "uint256"
        }
      ],
      "stateMutability": "view",
      "type": "function"
    },
    {
      "inputs": [
        {
          "internalType": "bytes4",
          "name": "interfaceId",
          "type": "bytes4"
        }
      ],
      "name": "supportsInterface",
      "outputs": [
        {
          "internalType": "bool",
          "name": "",
          "type": "bool"
        }
      ],
      "stateMutability": "view",
      "type": "function"
    },
    {
      "inputs": [
        {
          "internalType": "address",
          "name": "",
          "type": "address"
        }
      ],
      "name": "tokenToWTokenMap",
      "outputs": [
        {
          "internalType": "address",
          "name": "",
          "type": "address"
        }
      ],
      "stateMutability": "view",
      "type": "function"
    },
    {
      "inputs": [],
      "name": "unpause",
      "outputs": [],
      "stateMutability": "nonpayable",
      "type": "function"
    },
    {
      "inputs": [
        {
          "internalType": "contract IERC20",
          "name": "token",
          "type": "address"
        },
        {
          "internalType": "address",
          "name": "to",
          "type": "address"
        }
      ],
      "name": "withdrawFees",
      "outputs": [],
      "stateMutability": "nonpayable",
      "type": "function"
    },
    {
      "stateMutability": "payable",
      "type": "receive"
    }
  ],
  "transactionHash": "0x86e53e46df4333709a2d07b44ce91956709820b7f7350cb310fb6dfd5fdd2f67",
  "args": [],
  "numDeployments": 1,
  "solcInputHash": "a854344efffb11c5d5af9a59cf8431c7",
  "bytecode": "0x61014060405234801561001157600080fd5b50604080518082018252600a81526946696c6542726964676560b01b6020808301918252835180850190945260018452603160f81b908401528151902060e08190527fc89efdaa54c0f20c7adf612882df0950f5a951637e0307cdcb4c672f298b8bc66101008190524660a0529192917f8b73c3c69bb8fe3d512ecc4cf759cc79239f7b179b0ffacaa9a75d522b39400f6100f18184846040805160208101859052908101839052606081018290524660808201523060a082015260009060c0016040516020818303038152906040528051906020012090509392505050565b6080523060c052610120525061010692505050565b60805160a05160c05160e0516101005161012051612e326101556000396000611f2c01526000611f7b01526000611f5601526000611eaf01526000611ed901526000611f030152612e326000f3fe6080604052600436106101dc5760003560e01c80637931881411610102578063c78f680311610095578063d547741f11610064578063d547741f146105c9578063e32c1ef7146105e9578063f255527814610609578063f36c8f5c1461062957600080fd5b8063c78f680314610523578063c9422fe314610566578063d1cc997614610594578063d4ba26f8146105a957600080fd5b8063a96e2423116100d1578063a96e2423146104b9578063ac865626146104d9578063c037e7de146104ee578063c2b6b58c1461050e57600080fd5b8063793188141461041c5780638456cb591461043c57806391d1485414610451578063a217fddf146104a457600080fd5b8063299bb7151161017a5780633f4ba83a116101495780633f4ba83a146103b9578063498a4c2d146103ce5780635c975abb146103e45780636701ccb5146103fc57600080fd5b8063299bb715146103435780632f2ff15d1461035957806336568abe146103795780633ede50c61461039957600080fd5b806322f3e2d4116101b657806322f3e2d41461029c578063248a9ca3146102b157806324ea54f4146102ef578063262dade51461032357600080fd5b806301ffc9a7146101e857806307c62ee21461021d5780630adc703f1461023457600080fd5b366101e357005b600080fd5b3480156101f457600080fd5b506102086102033660046128ae565b61065d565b60405190151581526020015b60405180910390f35b34801561022957600080fd5b506102326106f6565b005b34801561024057600080fd5b5061027761024f366004612922565b60fe6020526000908152604090205473ffffffffffffffffffffffffffffffffffffffff1681565b60405173ffffffffffffffffffffffffffffffffffffffff9091168152602001610214565b3480156102a857600080fd5b5061020861079e565b3480156102bd57600080fd5b506102e16102cc36600461293f565b600090815260c9602052604090206001015490565b604051908152602001610214565b3480156102fb57600080fd5b506102e17f55435dd261a4b9b3364963f7738a7a662ad9c84396d64be3365284bb7f0a504181565b34801561032f57600080fd5b5061023261033e366004612958565b6107bf565b34801561034f57600080fd5b506102e160fb5481565b34801561036557600080fd5b506102326103743660046129b4565b610901565b34801561038557600080fd5b506102326103943660046129b4565b61092b565b3480156103a557600080fd5b506102326103b4366004612a13565b6109de565b3480156103c557600080fd5b50610232610cd6565b3480156103da57600080fd5b506102e160ff5481565b3480156103f057600080fd5b5060655460ff16610208565b34801561040857600080fd5b50610232610417366004612b13565b610d08565b34801561042857600080fd5b506102e1610437366004612b13565b610f98565b34801561044857600080fd5b50610232611025565b34801561045d57600080fd5b5061020861046c3660046129b4565b600091825260c96020908152604080842073ffffffffffffffffffffffffffffffffffffffff93909316845291905290205460ff1690565b3480156104b057600080fd5b506102e1600081565b3480156104c557600080fd5b506102326104d4366004612922565b611057565b3480156104e557600080fd5b506102e1600181565b3480156104fa57600080fd5b50610232610509366004612922565b6110ca565b34801561051a57600080fd5b506102086111d5565b34801561052f57600080fd5b506102e161053e366004612922565b73ffffffffffffffffffffffffffffffffffffffff16600090815260fd602052604090205490565b34801561057257600080fd5b50610100546102779073ffffffffffffffffffffffffffffffffffffffff1681565b3480156105a057600080fd5b506102086111de565b3480156105b557600080fd5b506102326105c4366004612b5b565b6111e7565b3480156105d557600080fd5b506102326105e43660046129b4565b61132c565b3480156105f557600080fd5b50610232610604366004612b5b565b611351565b34801561061557600080fd5b50610232610624366004612b5b565b61146b565b34801561063557600080fd5b506102e17f71840dc4906352362b0cdaf79870196c8e42acafade72d5d5a6d59291253ceb181565b60007fffffffff0000000000000000000000000000000000000000000000000000000082167f7965db0b0000000000000000000000000000000000000000000000000000000014806106f057507f01ffc9a7000000000000000000000000000000000000000000000000000000007fffffffff000000000000000000000000000000000000000000000000000000008316145b92915050565b7f71840dc4906352362b0cdaf79870196c8e42acafade72d5d5a6d59291253ceb1610720816115a0565b61072861079e565b610793576040517f08c379a000000000000000000000000000000000000000000000000000000000815260206004820152601660248201527f677561726469616e206973206e6f74206163746976650000000000000000000060448201526064015b60405180910390fd5b61079b6115aa565b50565b6000805b60fc5460ff1660028111156107b9576107b9612b89565b14905090565b6107c76115ff565b6107cf611673565b604080517fd018399b44848eec2ba17374015cb6d29ac64cfd264e77aa02a5586e28ca157d60208083019190915273ffffffffffffffffffffffffffffffffffffffff89811683850152606083018990528716608083015260a08083018790528351808403909101815260c090920190925280519101206000610851826116e2565b9050600061086082868661174b565b73ffffffffffffffffffffffffffffffffffffffff811660009081527f983fd6c46a33559635a060375c82a3e6b63e41c2605b8c4887d674d69b5efed9602052604090205490915060ff166108e1576040517f0653c41500000000000000000000000000000000000000000000000000000000815260040160405180910390fd5b6108ed89898989611771565b5050506108f960018055565b505050505050565b600082815260c9602052604090206001015461091c816115a0565b6109268383611981565b505050565b73ffffffffffffffffffffffffffffffffffffffff811633146109d0576040517f08c379a000000000000000000000000000000000000000000000000000000000815260206004820152602f60248201527f416363657373436f6e74726f6c3a2063616e206f6e6c792072656e6f756e636560448201527f20726f6c657320666f722073656c660000000000000000000000000000000000606482015260840161078a565b6109da8282611a75565b5050565b600054610100900460ff16158080156109fe5750600054600160ff909116105b80610a185750303b158015610a18575060005460ff166001145b610aa4576040517f08c379a000000000000000000000000000000000000000000000000000000000815260206004820152602e60248201527f496e697469616c697a61626c653a20636f6e747261637420697320616c72656160448201527f647920696e697469616c697a6564000000000000000000000000000000000000606482015260840161078a565b600080547fffffffffffffffffffffffffffffffffffffffffffffffffffffffffffffff001660011790558015610b0257600080547fffffffffffffffffffffffffffffffffffffffffffffffffffffffffffff00ff166101001790555b4360ff55610b11600085611b30565b610b3b7f71840dc4906352362b0cdaf79870196c8e42acafade72d5d5a6d59291253ceb185611b30565b610b43611b3a565b73ffffffffffffffffffffffffffffffffffffffff8416610b90576040517ff7acd5b600000000000000000000000000000000000000000000000000000000815260040160405180910390fd5b60005b83518160ff161015610bf757610be57f55435dd261a4b9b3364963f7738a7a662ad9c84396d64be3365284bb7f0a5041858360ff1681518110610bd857610bd8612bb8565b6020026020010151611b30565b80610bef81612c16565b915050610b93565b5060fb829055610c05611b3a565b60fc80547fffffffffffffffffffffffffffffffffffffffffffffffffffffffffffffff0016905561010080547fffffffffffffffffffffff00ffffffffffffffffffffffffffffffffffffffff16740100000000000000000000000000000000000000001790558015610cd057600080547fffffffffffffffffffffffffffffffffffffffffffffffffffffffffffff00ff169055604051600181527f7f26b83ff96e1f2b6a682f133852f6798a09c465da95921460cefb38474024989060200160405180910390a15b50505050565b7f71840dc4906352362b0cdaf79870196c8e42acafade72d5d5a6d59291253ceb1610d00816115a0565b61079b611bd1565b610d106115ff565b610d18611673565b73ffffffffffffffffffffffffffffffffffffffff808316600090815260fe60205260409020541680610d77576040517f7d96f86200000000000000000000000000000000000000000000000000000000815260040160405180910390fd5b6040805185815273ffffffffffffffffffffffffffffffffffffffff8581166020830152918101849052908616907fda5273705dbef4bf1b902a131c2eac086b7e1476a8ab0cb4da08af1fe1bd8e3b9060600160405180910390a2610df473ffffffffffffffffffffffffffffffffffffffff8416333085611c4e565b6040517f095ea7b300000000000000000000000000000000000000000000000000000000815273ffffffffffffffffffffffffffffffffffffffff82811660048301526024820184905284169063095ea7b3906044016020604051808303816000875af1158015610e69573d6000803e3d6000fd5b505050506040513d601f19601f82011682018060405250810190610e8d9190612c36565b506040517fb6b55f250000000000000000000000000000000000000000000000000000000081526004810183905273ffffffffffffffffffffffffffffffffffffffff82169063b6b55f2590602401600060405180830381600087803b158015610ef657600080fd5b505af1158015610f0a573d6000803e3d6000fd5b50506040517f42966c680000000000000000000000000000000000000000000000000000000081526004810185905273ffffffffffffffffffffffffffffffffffffffff841692506342966c689150602401600060405180830381600087803b158015610f7657600080fd5b505af1158015610f8a573d6000803e3d6000fd5b5050505050610cd060018055565b604080517fd018399b44848eec2ba17374015cb6d29ac64cfd264e77aa02a5586e28ca157d60208083019190915273ffffffffffffffffffffffffffffffffffffffff87811683850152606083018790528516608083015260a08083018590528351808403909101815260c0909201909252805191012060009061101b816116e2565b9695505050505050565b7f71840dc4906352362b0cdaf79870196c8e42acafade72d5d5a6d59291253ceb161104f816115a0565b61079b611d2a565b7f71840dc4906352362b0cdaf79870196c8e42acafade72d5d5a6d59291253ceb1611081816115a0565b5061010080547fffffffffffffffffffffffff00000000000000000000000000000000000000001673ffffffffffffffffffffffffffffffffffffffff92909216919091179055565b7f71840dc4906352362b0cdaf79870196c8e42acafade72d5d5a6d59291253ceb16110f4816115a0565b73ffffffffffffffffffffffffffffffffffffffff828116600090815260fe602052604090205416611152576040517f7c3c605400000000000000000000000000000000000000000000000000000000815260040160405180910390fd5b73ffffffffffffffffffffffffffffffffffffffff8216600081815260fe602090815260409182902080547fffffffffffffffffffffffff000000000000000000000000000000000000000016905590519182527fd1430f7c8d782550f18b6c7da273333e083a2b7095d212a2f6c82c33a5d4b052910160405180910390a15050565b600060016107a2565b600060026107a2565b7f71840dc4906352362b0cdaf79870196c8e42acafade72d5d5a6d59291253ceb1611211816115a0565b73ffffffffffffffffffffffffffffffffffffffff838116600090815260fe60205260409020541661126f576040517f7c3c605400000000000000000000000000000000000000000000000000000000815260040160405180910390fd5b73ffffffffffffffffffffffffffffffffffffffff838116600081815260fe60209081526040918290205482519384528416908301529184168183015290517f4fe4c8a08efff712b39cdd1a4c2f7c9ef65db180f9987bbe77785fe3d93943729181900360600190a15073ffffffffffffffffffffffffffffffffffffffff918216600090815260fe6020526040902080547fffffffffffffffffffffffff00000000000000000000000000000000000000001691909216179055565b600082815260c96020526040902060010154611347816115a0565b6109268383611a75565b7f71840dc4906352362b0cdaf79870196c8e42acafade72d5d5a6d59291253ceb161137b816115a0565b73ffffffffffffffffffffffffffffffffffffffff838116600090815260fe602052604090205416156113da576040517fa18c194a00000000000000000000000000000000000000000000000000000000815260040160405180910390fd5b73ffffffffffffffffffffffffffffffffffffffff838116600081815260fe602090815260409182902080547fffffffffffffffffffffffff000000000000000000000000000000000000000016948716948517905581519283528201929092527f8194f8ec86427d430181ba7edda1ba0f0c2aec07a5d94ccbe1322bc03eaa43e5910160405180910390a1505050565b611473611673565b7f71840dc4906352362b0cdaf79870196c8e42acafade72d5d5a6d59291253ceb161149d816115a0565b73ffffffffffffffffffffffffffffffffffffffff821661151a576040517f08c379a000000000000000000000000000000000000000000000000000000000815260206004820152601060248201527f4164647265737320697320307830303000000000000000000000000000000000604482015260640161078a565b73ffffffffffffffffffffffffffffffffffffffff8316600090815260fd6020526040902054156109265773ffffffffffffffffffffffffffffffffffffffff8316600081815260fd602052604090205461157791908490611d85565b505073ffffffffffffffffffffffffffffffffffffffff16600090815260fd6020526040812055565b61079b8133611ddb565b60fc80547fffffffffffffffffffffffffffffffffffffffffffffffffffffffffffffff001660011790556040517e1aa2f31bfd8a202cf1404bdcbb5ee7edce92af589f2b2926bae82fb281a26690600090a1565b6002600154141561166c576040517f08c379a000000000000000000000000000000000000000000000000000000000815260206004820152601f60248201527f5265656e7472616e637947756172643a207265656e7472616e742063616c6c00604482015260640161078a565b6002600155565b60655460ff16156116e0576040517f08c379a000000000000000000000000000000000000000000000000000000000815260206004820152601060248201527f5061757361626c653a2070617573656400000000000000000000000000000000604482015260640161078a565b565b60006106f06116ef611e95565b836040517f19010000000000000000000000000000000000000000000000000000000000006020820152602281018390526042810182905260009060620160405160208183030381529060405280519060200120905092915050565b600080600061175b868686611fc9565b915091506117688161201b565b50949350505050565b73ffffffffffffffffffffffffffffffffffffffff828116600081815260fe602090815260409182902054825188815291820193909352908101849052908216918616907fdc5bad4651c5fbe9977a696aadc65996c468cde1448dd468ec0d83bf61c4b57c9060600160405180910390a26040517f40c10f190000000000000000000000000000000000000000000000000000000081523060048201526024810183905273ffffffffffffffffffffffffffffffffffffffff8216906340c10f1990604401600060405180830381600087803b15801561185057600080fd5b505af1158015611864573d6000803e3d6000fd5b50506040517f2e1a7d4d0000000000000000000000000000000000000000000000000000000081526004810185905273ffffffffffffffffffffffffffffffffffffffff84169250632e1a7d4d9150602401600060405180830381600087803b1580156118d057600080fd5b505af11580156118e4573d6000803e3d6000fd5b50506040517fa9059cbb00000000000000000000000000000000000000000000000000000000815273ffffffffffffffffffffffffffffffffffffffff8881166004830152602482018690528616925063a9059cbb91506044016020604051808303816000875af115801561195d573d6000803e3d6000fd5b505050506040513d601f19601f820116820180604052508101906108f99190612c36565b600082815260c96020908152604080832073ffffffffffffffffffffffffffffffffffffffff8516845290915290205460ff166109da57600082815260c96020908152604080832073ffffffffffffffffffffffffffffffffffffffff85168452909152902080547fffffffffffffffffffffffffffffffffffffffffffffffffffffffffffffff00166001179055611a173390565b73ffffffffffffffffffffffffffffffffffffffff168173ffffffffffffffffffffffffffffffffffffffff16837f2f8788117e7eff1d82e926ec794901d17c78024a50270940304540a733656f0d60405160405180910390a45050565b600082815260c96020908152604080832073ffffffffffffffffffffffffffffffffffffffff8516845290915290205460ff16156109da57600082815260c96020908152604080832073ffffffffffffffffffffffffffffffffffffffff8516808552925280832080547fffffffffffffffffffffffffffffffffffffffffffffffffffffffffffffff0016905551339285917ff6391f5c32d9c69d2a47ea670b442974b53935d1edc7fd64eb21e047a839171b9190a45050565b6109da8282611981565b600054610100900460ff166116e0576040517f08c379a000000000000000000000000000000000000000000000000000000000815260206004820152602b60248201527f496e697469616c697a61626c653a20636f6e7472616374206973206e6f74206960448201527f6e697469616c697a696e67000000000000000000000000000000000000000000606482015260840161078a565b611bd96121d2565b606580547fffffffffffffffffffffffffffffffffffffffffffffffffffffffffffffff001690557f5db9ee0a495bf2e6ff9c91a7834c1ba4fdd244a5e8aa4e537bd38aeae4b073aa335b60405173ffffffffffffffffffffffffffffffffffffffff909116815260200160405180910390a1565b60405173ffffffffffffffffffffffffffffffffffffffff80851660248301528316604482015260648101829052610cd09085907f23b872dd00000000000000000000000000000000000000000000000000000000906084015b604080517fffffffffffffffffffffffffffffffffffffffffffffffffffffffffffffffe08184030181529190526020810180517bffffffffffffffffffffffffffffffffffffffffffffffffffffffff167fffffffff000000000000000000000000000000000000000000000000000000009093169290921790915261223e565b611d32611673565b606580547fffffffffffffffffffffffffffffffffffffffffffffffffffffffffffffff001660011790557f62e78cea01bee320cd4e420270b5ea74000d11b0c9f74754ebdbfc544b05a258611c243390565b60405173ffffffffffffffffffffffffffffffffffffffff83166024820152604481018290526109269084907fa9059cbb0000000000000000000000000000000000000000000000000000000090606401611ca8565b600082815260c96020908152604080832073ffffffffffffffffffffffffffffffffffffffff8516845290915290205460ff166109da57611e1b8161234a565b611e26836020612369565b604051602001611e37929190612c84565b604080517fffffffffffffffffffffffffffffffffffffffffffffffffffffffffffffffe0818403018152908290527f08c379a000000000000000000000000000000000000000000000000000000000825261078a91600401612d05565b60003073ffffffffffffffffffffffffffffffffffffffff7f000000000000000000000000000000000000000000000000000000000000000016148015611efb57507f000000000000000000000000000000000000000000000000000000000000000046145b15611f2557507f000000000000000000000000000000000000000000000000000000000000000090565b50604080517f00000000000000000000000000000000000000000000000000000000000000006020808301919091527f0000000000000000000000000000000000000000000000000000000000000000828401527f000000000000000000000000000000000000000000000000000000000000000060608301524660808301523060a0808401919091528351808403909101815260c0909201909252805191012090565b6000807f7fffffffffffffffffffffffffffffffffffffffffffffffffffffffffffffff831681611fff60ff86901c601b612d56565b905061200d878288856125b3565b935093505050935093915050565b600081600481111561202f5761202f612b89565b14156120385750565b600181600481111561204c5761204c612b89565b14156120b4576040517f08c379a000000000000000000000000000000000000000000000000000000000815260206004820152601860248201527f45434453413a20696e76616c6964207369676e61747572650000000000000000604482015260640161078a565b60028160048111156120c8576120c8612b89565b1415612130576040517f08c379a000000000000000000000000000000000000000000000000000000000815260206004820152601f60248201527f45434453413a20696e76616c6964207369676e6174757265206c656e67746800604482015260640161078a565b600381600481111561214457612144612b89565b141561079b576040517f08c379a000000000000000000000000000000000000000000000000000000000815260206004820152602260248201527f45434453413a20696e76616c6964207369676e6174757265202773272076616c60448201527f7565000000000000000000000000000000000000000000000000000000000000606482015260840161078a565b60655460ff166116e0576040517f08c379a000000000000000000000000000000000000000000000000000000000815260206004820152601460248201527f5061757361626c653a206e6f7420706175736564000000000000000000000000604482015260640161078a565b60006122a0826040518060400160405280602081526020017f5361666545524332303a206c6f772d6c6576656c2063616c6c206661696c65648152508573ffffffffffffffffffffffffffffffffffffffff166126a29092919063ffffffff16565b80519091501561092657808060200190518101906122be9190612c36565b610926576040517f08c379a000000000000000000000000000000000000000000000000000000000815260206004820152602a60248201527f5361666545524332303a204552433230206f7065726174696f6e20646964206e60448201527f6f74207375636365656400000000000000000000000000000000000000000000606482015260840161078a565b60606106f073ffffffffffffffffffffffffffffffffffffffff831660145b60606000612378836002612d6e565b612383906002612d56565b67ffffffffffffffff81111561239b5761239b6129e4565b6040519080825280601f01601f1916602001820160405280156123c5576020820181803683370190505b5090507f3000000000000000000000000000000000000000000000000000000000000000816000815181106123fc576123fc612bb8565b60200101907effffffffffffffffffffffffffffffffffffffffffffffffffffffffffffff1916908160001a9053507f78000000000000000000000000000000000000000000000000000000000000008160018151811061245f5761245f612bb8565b60200101907effffffffffffffffffffffffffffffffffffffffffffffffffffffffffffff1916908160001a905350600061249b846002612d6e565b6124a6906001612d56565b90505b6001811115612543577f303132333435363738396162636465660000000000000000000000000000000085600f16601081106124e7576124e7612bb8565b1a60f81b8282815181106124fd576124fd612bb8565b60200101907effffffffffffffffffffffffffffffffffffffffffffffffffffffffffffff1916908160001a90535060049490941c9361253c81612dab565b90506124a9565b5083156125ac576040517f08c379a000000000000000000000000000000000000000000000000000000000815260206004820181905260248201527f537472696e67733a20686578206c656e67746820696e73756666696369656e74604482015260640161078a565b9392505050565b6000807f7fffffffffffffffffffffffffffffff5d576e7357a4501ddfe92f46681b20a08311156125ea5750600090506003612699565b6040805160008082526020820180845289905260ff881692820192909252606081018690526080810185905260019060a0016020604051602081039080840390855afa15801561263e573d6000803e3d6000fd5b50506040517fffffffffffffffffffffffffffffffffffffffffffffffffffffffffffffffe0015191505073ffffffffffffffffffffffffffffffffffffffff811661269257600060019250925050612699565b9150600090505b94509492505050565b60606126b184846000856126b9565b949350505050565b60608247101561274b576040517f08c379a000000000000000000000000000000000000000000000000000000000815260206004820152602660248201527f416464726573733a20696e73756666696369656e742062616c616e636520666f60448201527f722063616c6c0000000000000000000000000000000000000000000000000000606482015260840161078a565b6000808673ffffffffffffffffffffffffffffffffffffffff1685876040516127749190612de0565b60006040518083038185875af1925050503d80600081146127b1576040519150601f19603f3d011682016040523d82523d6000602084013e6127b6565b606091505b50915091506127c7878383876127d2565b979650505050505050565b6060831561286557825161285e5773ffffffffffffffffffffffffffffffffffffffff85163b61285e576040517f08c379a000000000000000000000000000000000000000000000000000000000815260206004820152601d60248201527f416464726573733a2063616c6c20746f206e6f6e2d636f6e7472616374000000604482015260640161078a565b50816126b1565b6126b1838381511561287a5781518083602001fd5b806040517f08c379a000000000000000000000000000000000000000000000000000000000815260040161078a9190612d05565b6000602082840312156128c057600080fd5b81357fffffffff00000000000000000000000000000000000000000000000000000000811681146125ac57600080fd5b73ffffffffffffffffffffffffffffffffffffffff8116811461079b57600080fd5b803561291d816128f0565b919050565b60006020828403121561293457600080fd5b81356125ac816128f0565b60006020828403121561295157600080fd5b5035919050565b60008060008060008060c0878903121561297157600080fd5b863561297c816128f0565b9550602087013594506040870135612993816128f0565b959894975094956060810135955060808101359460a0909101359350915050565b600080604083850312156129c757600080fd5b8235915060208301356129d9816128f0565b809150509250929050565b7f4e487b7100000000000000000000000000000000000000000000000000000000600052604160045260246000fd5b600080600060608486031215612a2857600080fd5b8335612a33816128f0565b925060208481013567ffffffffffffffff80821115612a5157600080fd5b818701915087601f830112612a6557600080fd5b813581811115612a7757612a776129e4565b8060051b6040517fffffffffffffffffffffffffffffffffffffffffffffffffffffffffffffffe0603f83011681018181108582111715612aba57612aba6129e4565b60405291825284820192508381018501918a831115612ad857600080fd5b938501935b82851015612afd57612aee85612912565b84529385019392850192612add565b979a979950505050604095909501359450505050565b60008060008060808587031215612b2957600080fd5b8435612b34816128f0565b9350602085013592506040850135612b4b816128f0565b9396929550929360600135925050565b60008060408385031215612b6e57600080fd5b8235612b79816128f0565b915060208301356129d9816128f0565b7f4e487b7100000000000000000000000000000000000000000000000000000000600052602160045260246000fd5b7f4e487b7100000000000000000000000000000000000000000000000000000000600052603260045260246000fd5b7f4e487b7100000000000000000000000000000000000000000000000000000000600052601160045260246000fd5b600060ff821660ff811415612c2d57612c2d612be7565b60010192915050565b600060208284031215612c4857600080fd5b815180151581146125ac57600080fd5b60005b83811015612c73578181015183820152602001612c5b565b83811115610cd05750506000910152565b7f416363657373436f6e74726f6c3a206163636f756e7420000000000000000000815260008351612cbc816017850160208801612c58565b7f206973206d697373696e6720726f6c65200000000000000000000000000000006017918401918201528351612cf9816028840160208801612c58565b01602801949350505050565b6020815260008251806020840152612d24816040850160208701612c58565b601f017fffffffffffffffffffffffffffffffffffffffffffffffffffffffffffffffe0169190910160400192915050565b60008219821115612d6957612d69612be7565b500190565b6000817fffffffffffffffffffffffffffffffffffffffffffffffffffffffffffffffff0483118215151615612da657612da6612be7565b500290565b600081612dba57612dba612be7565b507fffffffffffffffffffffffffffffffffffffffffffffffffffffffffffffffff0190565b60008251612df2818460208701612c58565b919091019291505056fea2646970667358221220300818ff920aff08e2c98544656c3a9fa4612573daad23b95fbe8ab75d02291f64736f6c634300080a0033",
  "devdoc": {
    "kind": "dev",
    "methods": {
      "addWToken(address,address)": {
        "params": {
          "_fToken": "Wrapped ERC20 token",
          "_token": "ERC20 token"
        }
      },
      "changeWToken(address,address)": {
        "params": {
          "_fToken": "Wrapped ERC20 token",
          "_token": "ERC20 token"
        }
      },
      "closeguardian()": {
        "details": "The function can be called only by the owner of the guardian and only if the guardian has not been already closed."
      },
      "depositToken(address,uint256,address,uint256)": {
        "params": {
          "amount": "Amount in native token decimals to transfer cross-chain pre-fees*",
          "chainId": "which chain to bridge assets onto",
          "to": "address on other chain to bridge assets to",
          "token": "ERC20 compatible token to deposit into the bridge"
        }
      },
      "getRoleAdmin(bytes32)": {
        "details": "Returns the admin role that controls `role`. See {grantRole} and {revokeRole}. To change a role's admin, use {_setRoleAdmin}."
      },
      "grantRole(bytes32,address)": {
        "details": "Grants `role` to `account`. If `account` had not been already granted `role`, emits a {RoleGranted} event. Requirements: - the caller must have ``role``'s admin role. May emit a {RoleGranted} event."
      },
      "hasRole(bytes32,address)": {
        "details": "Returns `true` if `account` has been granted `role`."
      },
      "isActive()": {
        "returns": {
          "_0": "true if the guardian is active, false otherwise."
        }
      },
      "isClosed()": {
        "returns": {
          "_0": "true if the guardian is closed, false otherwise."
        }
      },
      "isTerminated()": {
        "returns": {
          "_0": "true if the guardian has been terminated, false otherwise."
        }
      },
      "paused()": {
        "details": "Returns true if the contract is paused, and false otherwise."
      },
      "redeemToken(address,uint256,address,uint256,bytes32,bytes32)": {
        "params": {
          "amount": "Amount in native token decimals to transfer cross-chain pre-fees*",
          "chainId": "which underlying chain to bridge assets onto",
          "to": "address on other chain to redeem underlying assets to",
          "token": "ERC20 compatible token to deposit into the bridge"
        }
      },
      "removeWToken(address)": {
        "params": {
          "_token": "ERC20 token"
        }
      },
      "renounceRole(bytes32,address)": {
        "details": "Revokes `role` from the calling account. Roles are often managed via {grantRole} and {revokeRole}: this function's purpose is to provide a mechanism for accounts to lose their privileges if they are compromised (such as when a trusted device is misplaced). If the calling account had been revoked `role`, emits a {RoleRevoked} event. Requirements: - the caller must be `account`. May emit a {RoleRevoked} event."
      },
      "revokeRole(bytes32,address)": {
        "details": "Revokes `role` from `account`. If `account` had been granted `role`, emits a {RoleRevoked} event. Requirements: - the caller must have ``role``'s admin role. May emit a {RoleRevoked} event."
      },
      "supportsInterface(bytes4)": {
        "details": "See {IERC165-supportsInterface}."
      },
      "withdrawFees(address,address)": {
        "params": {
          "to": "Address to send the fees to",
          "token": "ERC20 token in which fees acccumulated to transfer"
        }
      }
    },
    "version": 1
  },
  "userdoc": {
    "kind": "user",
    "methods": {
      "addWToken(address,address)": {
        "notice": "add the token to list of acceptable token for brdige"
      },
      "changeWToken(address,address)": {
        "notice": "change the token in list of acceptable token for brdige"
      },
      "closeguardian()": {
        "notice": "Closes guardian when owner decides that they no longer need it. Releases bonds to the guardian members."
      },
      "depositToken(address,uint256,address,uint256)": {
        "notice": "Relays to nodes to transfers an ERC20 token cross-chain"
      },
      "isActive()": {
        "notice": "Returns true if the guardian is active."
      },
      "isClosed()": {
        "notice": "Returns true if the guardian is closed and members no longer support this guardian."
      },
      "isTerminated()": {
        "notice": "Returns true if the guardian has been terminated. guardian is terminated when bonds are seized and members no longer support this guardian."
      },
      "redeemToken(address,uint256,address,uint256,bytes32,bytes32)": {
        "notice": "Relays to nodes that (typically) a wrapped synAsset ERC20 token has been burned and the underlying needs to be redeeemed on the native chain"
      },
      "removeWToken(address)": {
        "notice": "remove the token from list of acceptable token for brdige"
      },
      "withdrawFees(address,address)": {
        "notice": "withdraw specified ERC20 token fees to a given address"
      }
    },
    "version": 1
  },
  "storageLayout": {
    "storage": [
      {
        "astId": 415,
        "contract": "contracts/bridge/FileBridge.sol:FileBridge",
        "label": "_initialized",
        "offset": 0,
        "slot": "0",
        "type": "t_uint8"
      },
      {
        "astId": 418,
        "contract": "contracts/bridge/FileBridge.sol:FileBridge",
        "label": "_initializing",
        "offset": 1,
        "slot": "0",
        "type": "t_bool"
      },
      {
        "astId": 718,
        "contract": "contracts/bridge/FileBridge.sol:FileBridge",
        "label": "_status",
        "offset": 0,
        "slot": "1",
        "type": "t_uint256"
      },
      {
        "astId": 776,
        "contract": "contracts/bridge/FileBridge.sol:FileBridge",
        "label": "__gap",
        "offset": 0,
        "slot": "2",
        "type": "t_array(t_uint256)49_storage"
      },
      {
        "astId": 1102,
        "contract": "contracts/bridge/FileBridge.sol:FileBridge",
        "label": "__gap",
        "offset": 0,
        "slot": "51",
        "type": "t_array(t_uint256)50_storage"
      },
      {
        "astId": 598,
        "contract": "contracts/bridge/FileBridge.sol:FileBridge",
        "label": "_paused",
        "offset": 0,
        "slot": "101",
        "type": "t_bool"
      },
      {
        "astId": 703,
        "contract": "contracts/bridge/FileBridge.sol:FileBridge",
        "label": "__gap",
        "offset": 0,
        "slot": "102",
        "type": "t_array(t_uint256)49_storage"
      },
      {
        "astId": 1321,
        "contract": "contracts/bridge/FileBridge.sol:FileBridge",
        "label": "__gap",
        "offset": 0,
        "slot": "151",
        "type": "t_array(t_uint256)50_storage"
      },
      {
        "astId": 39,
        "contract": "contracts/bridge/FileBridge.sol:FileBridge",
        "label": "_roles",
        "offset": 0,
        "slot": "201",
        "type": "t_mapping(t_bytes32,t_struct(RoleData)34_storage)"
      },
      {
        "astId": 334,
        "contract": "contracts/bridge/FileBridge.sol:FileBridge",
        "label": "__gap",
        "offset": 0,
        "slot": "202",
        "type": "t_array(t_uint256)49_storage"
      },
      {
        "astId": 7225,
        "contract": "contracts/bridge/FileBridge.sol:FileBridge",
        "label": "acceptebleThreshold",
        "offset": 0,
        "slot": "251",
        "type": "t_uint256"
      },
      {
        "astId": 7228,
        "contract": "contracts/bridge/FileBridge.sol:FileBridge",
        "label": "status",
        "offset": 0,
        "slot": "252",
        "type": "t_enum(Status)7223"
      },
      {
        "astId": 6492,
        "contract": "contracts/bridge/FileBridge.sol:FileBridge",
        "label": "fees",
        "offset": 0,
        "slot": "253",
        "type": "t_mapping(t_address,t_uint256)"
      },
      {
        "astId": 6496,
        "contract": "contracts/bridge/FileBridge.sol:FileBridge",
        "label": "tokenToWTokenMap",
        "offset": 0,
        "slot": "254",
        "type": "t_mapping(t_address,t_address)"
      },
      {
        "astId": 6506,
        "contract": "contracts/bridge/FileBridge.sol:FileBridge",
        "label": "startBlockNumber",
        "offset": 0,
        "slot": "255",
        "type": "t_uint256"
      },
      {
        "astId": 6508,
        "contract": "contracts/bridge/FileBridge.sol:FileBridge",
        "label": "WFIL_ADDRESS",
        "offset": 0,
        "slot": "256",
        "type": "t_address_payable"
      },
      {
        "astId": 6510,
        "contract": "contracts/bridge/FileBridge.sol:FileBridge",
        "label": "isInitialized",
        "offset": 20,
        "slot": "256",
        "type": "t_bool"
      }
    ],
    "types": {
      "t_address": {
        "encoding": "inplace",
        "label": "address",
        "numberOfBytes": "20"
      },
      "t_address_payable": {
        "encoding": "inplace",
        "label": "address payable",
        "numberOfBytes": "20"
      },
      "t_array(t_uint256)49_storage": {
        "base": "t_uint256",
        "encoding": "inplace",
        "label": "uint256[49]",
        "numberOfBytes": "1568"
      },
      "t_array(t_uint256)50_storage": {
        "base": "t_uint256",
        "encoding": "inplace",
        "label": "uint256[50]",
        "numberOfBytes": "1600"
      },
      "t_bool": {
        "encoding": "inplace",
        "label": "bool",
        "numberOfBytes": "1"
      },
      "t_bytes32": {
        "encoding": "inplace",
        "label": "bytes32",
        "numberOfBytes": "32"
      },
      "t_enum(Status)7223": {
        "encoding": "inplace",
        "label": "enum NodeManagement.Status",
        "numberOfBytes": "1"
      },
      "t_mapping(t_address,t_address)": {
        "encoding": "mapping",
        "key": "t_address",
        "label": "mapping(address => address)",
        "numberOfBytes": "32",
        "value": "t_address"
      },
      "t_mapping(t_address,t_bool)": {
        "encoding": "mapping",
        "key": "t_address",
        "label": "mapping(address => bool)",
        "numberOfBytes": "32",
        "value": "t_bool"
      },
      "t_mapping(t_address,t_uint256)": {
        "encoding": "mapping",
        "key": "t_address",
        "label": "mapping(address => uint256)",
        "numberOfBytes": "32",
        "value": "t_uint256"
      },
      "t_mapping(t_bytes32,t_struct(RoleData)34_storage)": {
        "encoding": "mapping",
        "key": "t_bytes32",
        "label": "mapping(bytes32 => struct AccessControlUpgradeable.RoleData)",
        "numberOfBytes": "32",
        "value": "t_struct(RoleData)34_storage"
      },
      "t_struct(RoleData)34_storage": {
        "encoding": "inplace",
        "label": "struct AccessControlUpgradeable.RoleData",
        "members": [
          {
            "astId": 31,
            "contract": "contracts/bridge/FileBridge.sol:FileBridge",
            "label": "members",
            "offset": 0,
            "slot": "0",
            "type": "t_mapping(t_address,t_bool)"
          },
          {
            "astId": 33,
            "contract": "contracts/bridge/FileBridge.sol:FileBridge",
            "label": "adminRole",
            "offset": 0,
            "slot": "1",
            "type": "t_bytes32"
          }
        ],
        "numberOfBytes": "64"
      },
      "t_uint256": {
        "encoding": "inplace",
        "label": "uint256",
        "numberOfBytes": "32"
      },
      "t_uint8": {
        "encoding": "inplace",
        "label": "uint8",
        "numberOfBytes": "1"
      }
    }
  }
}